:1000000009C016C015C014C013C012C052C010C021
:100010000FC00EC011241FBECFE9CDBF20E0A0E667
:10002000B0E001C01D92A636B207E1F702D079C058
:10003000E7CF8EE187BB81E088BB84E089BF82E0A7
:100040008FBD93E093BF86BF80E185BF789421E0A8
:100050008091640090916500883E934099F480916E
:10006000600081708227809360001092650010927A
:10007000640080916100909162000196909362000B
:100080008093610080916000882319F0C398C49A1E
:1000900002C0C39AC4988091610090916200883137
:1000A0009541B1F617BA18BA85B7806285BF8895B1
:1000B000CFCF1F920F920FB60F9211242F933F9321
:1000C0008F939F9380916400909165000196909327
:1000D00065008093640020916300217031E0232744
:1000E0002093630026B32170231781F0893C91058A
:1000F00068F0C19A80916300811102C0C29A01C068
:10010000C298109262001092610002C0C198C29819
:100110009F918F913F912F910F900FBE0F901F9045
:060120001895F894FFCFD2
:00000001FF
